:020000040800F2
:1000000098040020AD010008070F0008F90D000852
:10001000050F0008B9020008A51100080000000043
:100020000000000000000000000000000B0F0008AE
:10003000BB02000800000000090F00080D0F0008B7
:10004000C7010008C7010008C7010008C701000870
:10005000C7010008C7010008C7010008C701000860
:10006000C7010008C7010008C7010008C701000850
:10007000C7010008C7010008C7010008C701000840
:10008000C7010008C7010008C70100080000000000
:10009000000000000000000000000000C701000890
:1000A000C7010008C10F0008C7010008C701000808
:1000B000C7010008C7010008C7010008C701000800
:1000C000C7010008C7010008C7010008C7010008F0
:1000D000C7010008C7010008C701000800000000B0
:1000E000C7010008C7010008C701000800000000A0
:1000F000000000000000000000000000C701000830
:1001000000000000C7010008C7010008C70100087F
:1001100000000000000000000000000000000000DF
:10012000C7010008C7010008C7010008C70100088F
:10013000C7010008000000000000000000000000EF
:10014000000000000000000000000000C7010008DF
:10015000C7010008C7010008C7010008C70100085F
:10016000C7010008C70100080000000000000000EF
:10017000000000000000000000000000000000007F
:1001800000000000C701000800000000000000009F
:10019000C7010008DFF810D000F07CF800480047E5
:1001A000E5110008AFF3008098040020064880475E
:1001B00006480047FEE7FEE7FEE7FEE7FEE7FEE74C
:1001C000FEE7FEE7FEE7FEE7A50F00089501000841
:1001D0002DE9F05F0546002092469B46884606467C
:1001E000814640241BE0284641464746224600F00F
:1001F00041F853465A46C01A914110D31146184649
:10020000224600F028F82D1A67EB01084F462246D7
:100210000120002100F01FF817EB00094E41201EBD
:10022000A4F10104DFDC484631462A464346BDE8D6
:10023000F09FD2B201E000F8012B491EFBD27047BB
:100240000022F6E710B513460A4604461946FFF7A2
:10025000F0FF204610BD202A04DB203A00FA02F10C
:10026000002070479140C2F1200320FA03F31943A4
:1002700090407047202A04DB203A21FA02F0002146
:10028000704721FA02F3D040C2F1200291400843A6
:1002900019467047064C074D06E0E06840F0010340
:1002A00094E8070098471034AC42F6D3FFF776FF86
:1002B0004812000868120008FEE7704772B6FEE7B1
:1002C0002DE9F84F00224FF0010803254FF00F0EE3
:1002D0000B6808FA02F42340A34271D14E68012E44
:1002E00005D0022E03D0112E01D0122E15D1866812
:1002F000570005FA07FC26EA0C06D1F80CC00CFAE8
:1003000007FC4CEA060CC0F808C04668A6430C7906
:10031000C4F30014944034434460C668570005FA9F
:1003200007FC8C6826EA0C06BC403443C4604C6869
:10033000022C01D0122C13D1D40800EB8404A34664
:10034000D4F8209054074FEAD46A0EFA0AF629EA44
:1003500006090E6906FA0AF646EA0906CBF8206095
:1003600004680E7924EA0C0406F00306BE40264316
:1003700006604C68E40056D52E4C266846F480464C
:100380002660246822F0030604F4804400942A4C7A
:100390003444A446D4F808489607370F0EFA07F6F7
:1003A000B443264EB04201D1002615E0244EB0429F
:1003B00001D1012610E0234EB04202D102260BE00B
:1003C00031E0214EB04201D1032605E01F4EB0427C
:1003D00001D1042600E00726BE402643CCF8086879
:1003E0001B4E34684F689C43FF0300D51C433460A8
:1003F000174E361D34684F689C43BF0300D51C431D
:100400003460134E083634684F689C43FF0200D5B1
:100410001C4334600E4E0C3634684F689C43BF0258
:1004200000D51C433460521C102AFFF451AFBDE8C4
:10043000F88F0000443802400030014000000240C4
:100440000004024000080240000C0240001002407C
:10045000003C0140426931EA020200D10904816195
:1004600070470AB1816170470904FBE70148806861
:10047000704700000800002002488168027811449B
:1004800081607047080000200B4810B5016841F4F6
:1004900000710160016841F480610160016841F40C
:1004A00080710160032000F071F8002000F006F870
:1004B00000F024F8002010BD003C024070B50D4D46
:1004C00004464FF47A712878B1FBF0F00A490968C4
:1004D000B1FBF0F000F004FB48B9102C07D2002269
:1004E0002146501E00F032F800206C6070BD0120E3
:1004F00070BD000008000020140000200B4882B0EE
:10050000016841F480410160006800F4804000907F
:100510000648001F016841F080510160006800F04A
:1005200080500090072002B000F030B844380240FC
:10053000002809DB00F01F020121914040098000E2
:1005400000F1E020C0F8001170470000F0B40E4B3D
:100550001B680C46C3F30223C3F10705042D00D921
:100560000425191D072901D2002300E0DB1E012606
:1005700006FA05F1491E214099409E40761E16401C
:100580003143F0BC00F00FBE0CED00E0064900F076
:10059000070208684FF6FF03184040EA0220034AAA
:1005A00010430860704700000CED00E00000FA0501
:1005B0002DE9F0470E46050065D0DFF81481D8F824
:1005C0000000F7B200F00F00B04207D288F80070C8
:1005D000D8F8000000F00F00B04254D128683D4C1C
:1005E000810712D5400703D5206840F4E050206011
:1005F0002878000703D5206840F460402060206818
:10060000A96820F0F000084320602878C0072DD0AA
:10061000304968680839012812D0022813D003280D
:1006200011D00968890700292DDA216821F003011A
:1006300001432160FFF71AFF814641F2883A0EE03C
:1006400009688903EFE709688901ECE7FFF70EFF06
:10065000A0EB0901514502D90320BDE8F0872068CD
:10066000696800F00C00B0EB810FEFD1D8F80010F2
:10067000404601F00F01B14207D90770006800F051
:100680000F00B04201D00120E7E72878400705D5E8
:100690002068E96820F4E0500843206028780007CB
:1006A00006D52068296920F4604040EAC100206036
:1006B00000F038F82168084AC1F30311515CC840C2
:1006C0000649086006480068FFF7F8FE0020C4E706
:1006D000003C02400838024030120008140000209C
:1006E0000C0000200448054900680968044AC1F369
:1006F0008221515CC8407047140000200838024035
:10070000401200080448054900680968044AC1F31A
:100710004231515CC8407047140000200838024044
:1007200040120008154810B5006810F00C0214487B
:1007300013D04110042A0FD0082A0ED10F4C241FC9
:100740002268236802F03F025B0207D52068C0F3ED
:100750008810A0FB010106E0084610BD2168C1F326
:100760008811A1FB00010023FFF732FD2168C1F3CE
:100770000141491C4900B0FBF1F010BD08380240AE
:100780000024F4002DE9F84F04006ED02078DFF843
:100790003C93C007A9F104054AD009F1040001689F
:1007A000C1F38101012908D00068C0F3810002284B
:1007B0000AD1D9F80000400206D52868800337D551
:1007C00060680028E1D033E06068B0F5803F10D069
:1007D000B0F5A02F286810D020F480302860286859
:1007E00020F4802028606068A8B1FFF73FFE06462D
:1007F0000DE0286840F48030F4E740F48020286061
:10080000F7E700BFFFF732FE801B642873D8286823
:100810008003F7D50CE0FFF729FE064605E000BF90
:10082000FFF724FE801B6428F0D828688003F7D4E3
:100830002078DFF89C8280074FF0000A3ED5A3485D
:10084000001D016811F00C0F08D00068C0F3810092
:1008500002280BD1D9F80000400207D4286880078D
:1008600016D5E068012800D112E02BE1E068B8B1AC
:100870000120C8F80000FFF7F9FD064605E000BFBB
:10088000FFF7F4FD801B0228C0D828688007F7D541
:100890002868216920F0F80040EAC10028600DE0D6
:1008A000C8F800A0FFF7E2FD064604E0FFF7DEFD12
:1008B000801B02281FD828688007F7D420780007FB
:1008C00022D5824E83486169703671B10121016081
:1008D000FFF7CCFD074604E0FFF7C8FDC01B022868
:1008E00009D830688007F7D50EE0C0F800A0FFF700
:1008F000BDFD074605E082E0FFF7B8FDC01B0228FA
:100900007DD830688007F7D42078400768D5DFF8B5
:10091000BCB100270BF13C0BDBF80000C0000BD48E
:10092000DBF8001041F08051CBF80010DBF800003C
:10093000012700F080500090674E3068C00510D449
:10094000306840F480703060FFF790FD009005E063
:10095000FFF78CFD0099401A022850D83068C00576
:10096000F6D55A4EA0686C3601280FD0052830689D
:1009700010D020F001003060306820F004003060BA
:10098000A068B8B1FFF772FD00900FE0306840F04A
:100990000100F4E740F004003060F7E7FFF766FD80
:1009A0000099411A41F28830814266D83068800748
:1009B000F4D50EE0FFF75AFD009007E0FFF756FD73
:1009C0000099411A41F28830814256D83068800738
:1009D000F4D42FB1DBF8001021F08051CBF80010D7
:1009E000A069C8B33949091D0968C1F38101022909
:1009F0004AD00228504607D0C8F8600000E03CE02A
:100A0000FFF734FD04463BE04746C8F86000FFF7B7
:100A10002DFD064605E000BFFFF728FD801B0228DC
:100A20002BD828688001F7D4D4E907010843A16ACC
:100A30002A4A490802EB0141626A41EA82110843ED
:100A400094F82C1040EA0161C9F8001001203866C2
:100A5000FFF70CFD044606E036E000BFFFF706FD99
:100A6000001B022809D828688001F7D52CE000BFB8
:100A7000FFF7FCFC001B022802D90320BDE8F88F19
:100A800028688001F4D41FE00128F7D0D9F80000CD
:100A9000E26900F48001914214D1226A00F03F0122
:100AA00091420FD147F6C071626A0140914209D16B
:100AB000A26A00F44031914204D1E16A00F0706012
:100AC000884201D00120D9E70020D7E7043802404E
:100AD00000004742800E4742007000400000FFFFC8
:100AE00010B5401EB0F1807F01D3012010BD4FF042
:100AF000E02460610F21601700F055FB0020A06129
:100B000007202061002010BD7047704710B5040019
:100B100003D094F83D0010B107E0012010BD002083
:100B200084F83C00204600F00DF8022084F83D00D7
:100B3000211D206800F04AFA012084F83D000020C1
:100B400010BD000008B500680B49884212D10B485F
:100B5000016841F4003101600068002200F40030B7
:100B6000009011461920FFF7F1FCBDE8084019205C
:100B7000FFF7DEBC08BD00000044014044380240DD
:100B80000168CA6842F00102CA600068816801F029
:100B90000701062903D0016841F00101016000202E
:100BA0007047704770B50446006801694FF0000552
:100BB000C943890715D4C168C943890711D4E91EFF
:100BC000016101202077206880698007204602D0DB
:100BD000FFF7E7FF04E000F098F8204600F096F8F1
:100BE000257720680169C943490717D4C168C943FB
:100BF000490713D46FF004010161022020772068B7
:100C0000806910F4407F204602D0FFF7CAFF04E05D
:100C100000F07BF8204600F079F82577206801691C
:100C2000C943090716D4C168C943090712D46FF034
:100C300008010161042020772068C06980072046F0
:100C400002D0FFF7AEFF04E000F05FF8204600F0AE
:100C50005DF8257720680169C943C90617D4C168C2
:100C6000C943C90613D46FF0100101610820207731
:100C70002068C06910F4407F204602D0FFF791FF42
:100C800004E000F042F8204600F040F825772068A4
:100C90000169C943C90708D1C168C943C90704D15B
:100CA000891E0161204600F033F820680169C943BC
:100CB000090609D4C168C943090605D46FF080014B
:100CC00001612046FFF720FF20680169C9434906FA
:100CD00009D4C168C943490605D46FF040010161D8
:100CE000204600F023F820680169C94389060BD427
:100CF000C168C943890607D46FF02001016120460D
:100D0000BDE87040FFF701BF70BD7047704700003D
:100D100000680449884203D103480168491C016006
:100D2000704700000044014000000020704770B58B
:100D3000040004D094F83900002510B106E0012029
:100D400070BD84F83850204600F022F8242084F842
:100D500039002068C16821F40051C160204600F0CC
:100D600081F92068016921F490410161206841699D
:100D700021F02A0141612068C16841F40051C1603D
:100D8000E563202084F8390084F83A00002070BD23
:100D900010B586B0044614216846FFF751FA13498E
:100DA000206888421FD112480021026842F40032B4
:100DB0000260006800F4003005900D4810380268A9
:100DC00042F001020260006800F0010005900C2072
:100DD00000900220CDE901010720CDE9031069460A
:100DE0000448FFF76DFA06B010BD00000044004053
:100DF0004038024000000240FEE7000070B586B0B7
:100E000014216846FFF71CFA1F480024016841F0CE
:100E100004010160016801F004010591016841F0DD
:100E200080010160016801F080010591016841F0D5
:100E300001010160016801F001010591016841F0C3
:100E4000020101600068114E00F002004FF481556C
:100E50000590002229463046FFF703FB4FF400506F
:100E600000900B48CDE9010469460A48FFF728FACB
:100E700001200095CDE90104694630460394FFF74F
:100E80001FFA06B070BD000030380240000002407A
:100E900000002110000802400B4810B5094901600C
:100EA0005321416000214FF6FF72C0E90212016137
:100EB0008161FFF72BFE002803D0BDE81040FFF74B
:100EC000FDB910BD00440140180000200C4810B5C9
:100ED0000A4901604FF4E1314160002181600C2238
:100EE000C160C0E904128161C161FFF720FF0028E1
:100EF00003D0BDE81040FFF7E1B910BD0044004049
:100F000058000020FEE7FEE770477047FFF7B4BACD
:100F100030B593B030216846FFF792F914210CA840
:100F2000FFF78EF91D480025016841F080510160EE
:100F3000006800F0805011901948016821F4404188
:100F400041F4004101600068022400F44040119027
:100F50000120039010200490009406940820CDE90D
:100F600007505420CDE9090407200B906846FFF78D
:100F700009FC08B172B6FEE70CA90F2081E8310028
:100F80004FF480500F90109002210CA8FFF710FB37
:100F9000002801D072B6FEE713B030BD40380240E1
:100FA000007000400548016841F470010160034988
:100FB0004FF00060803908607047000088ED00E065
:100FC0000148FFF7EFBD000018000020F0B50268EF
:100FD0001D4B1E4C9F031E4D1E4E984207D0B8421B
:100FE00005D0A04203D0A84201D0B04204D122F0E3
:100FF000700C4A6842EA0C02984210D0B8420ED0F7
:10100000A0420CD0A8420AD0B04208D0124CA04254
:1010100005D0124CA04202D0114CA04203D122F4C0
:101020004074CA6822434C6922F080022243026065
:101030008A68C2620A688262984201D109690163C2
:1010400001214161F0BD00000000014000040040AA
:1010500000080040000C00400040014000440140F6
:10106000004801402DE9F041044600680169E2684A
:1010700021F44051114301612169A068E2690843EC
:101080006169114308432168CA6849F20C639A43B5
:101090000243CA6020684169A26921F4407111438A
:1010A0004161E069192764253226B0F5004F354AC1
:1010B000354920684FF0000806D0884201D09042A0
:1010C00036D1FFF71FFB35E0884201D0904202D1B4
:1010D000FFF718FB01E0FFF705FB61684A18A0FB6A
:1010E000070148EB0803FFF773F80146B0FBF5F082
:1010F0000201B1FBF5F06FF01803584301EB8000DB
:1011000006EBC000B0FBF5F000F0F80002EB400287
:10111000B1FBF5F0584301EB800006EBC000B0FBDB
:10112000F5F000F00700216810448860BDE8F08108
:10113000FFF7D8FA61688B0F8A00A0FB0701FFF761
:1011400047F80146B0FBF5F06FF01802504301EB91
:10115000800006EB0010B0FBF5F000F0F002B1FBF0
:10116000F5F002EB0012B1FBF5F06FF018035843F5
:1011700001EB800006EB0010B0FBF5F000F00F0073
:10118000D1E7000000140140001001400449002292
:101190000B685A6209684A6A8242FCD370470000B1
:1011A00018000020FEE70907090E002804DB00F103
:1011B000E02080F80014704700F00F0000F1E020FC
:1011C00080F8141D704702E008C8121F08C1002AE9
:1011D000FAD170477047002001E001C1121F002AB8
:1011E000FBD17047FFF750F9FFF792FEFFF706FEBD
:1011F000FFF76CFEFFF750FE0948FFF7C1FC0949F5
:1012000000200A4D086008494FF4805408602146C8
:101210002846FFF71FF90120FFF7B8FFF7E70000A6
:101220001800002000000020040000200000024000
:101230000000000000000000010203040607080986
:1012400000000000010203046812000800000020F2
:1012500018000000C61100088012000818000020C5
:1012600080040000D611000800000000000000000B
:101270000100000010000000000000000024F40045
:040000050800019559
:00000001FF
